{
  "contractName": "TraceFI",
  "abi": [
    {
      "inputs": [
        {
          "internalType": "string",
          "name": "_name",
          "type": "string"
        },
        {
          "internalType": "string",
          "name": "_nric",
          "type": "string"
        },
        {
          "internalType": "string",
          "name": "_nationality",
          "type": "string"
        },
        {
          "internalType": "string",
          "name": "_citizenship",
          "type": "string"
        },
        {
          "internalType": "string",
          "name": "_addressLine",
          "type": "string"
        },
        {
          "internalType": "string",
          "name": "_postalCode",
          "type": "string"
        },
        {
          "internalType": "string",
          "name": "_gender",
          "type": "string"
        },
        {
          "internalType": "string",
          "name": "_countryOfBirth",
          "type": "string"
        },
        {
          "internalType": "string",
          "name": "_dateOfBirth",
          "type": "string"
        },
        {
          "internalType": "string",
          "name": "_homeNumber",
          "type": "string"
        },
        {
          "internalType": "string",
          "name": "_phoneNumber",
          "type": "string"
        },
        {
          "internalType": "string",
          "name": "_occupation",
          "type": "string"
        },
        {
          "internalType": "string",
          "name": "_employerName",
          "type": "string"
        },
        {
          "internalType": "string",
          "name": "_employerNumber",
          "type": "string"
        },
        {
          "internalType": "string",
          "name": "_riskStatus",
          "type": "string"
        },
        {
          "internalType": "string",
          "name": "_image",
          "type": "string"
        }
      ],
      "name": "registerClient",
      "outputs": [],
      "stateMutability": "nonpayable",
      "type": "function"
    },
    {
      "inputs": [
        {
          "internalType": "uint256",
          "name": "clientId",
          "type": "uint256"
        },
        {
          "internalType": "string",
          "name": "_tx",
          "type": "string"
        }
      ],
      "name": "addTransaction",
      "outputs": [],
      "stateMutability": "nonpayable",
      "type": "function"
    },
    {
      "inputs": [
        {
          "internalType": "uint256",
          "name": "id",
          "type": "uint256"
        }
      ],
      "name": "deleteClient",
      "outputs": [],
      "stateMutability": "nonpayable",
      "type": "function"
    },
    {
      "inputs": [
        {
          "internalType": "uint256",
          "name": "id",
          "type": "uint256"
        }
      ],
      "name": "getClientById",
      "outputs": [
        {
          "internalType": "uint256",
          "name": "",
          "type": "uint256"
        },
        {
          "internalType": "address",
          "name": "",
          "type": "address"
        },
        {
          "internalType": "string",
          "name": "",
          "type": "string"
        },
        {
          "internalType": "string",
          "name": "",
          "type": "string"
        },
        {
          "internalType": "string",
          "name": "",
          "type": "string"
        },
        {
          "internalType": "string",
          "name": "",
          "type": "string"
        },
        {
          "internalType": "string",
          "name": "",
          "type": "string"
        },
        {
          "internalType": "string",
          "name": "",
          "type": "string"
        },
        {
          "internalType": "string",
          "name": "",
          "type": "string"
        },
        {
          "internalType": "string",
          "name": "",
          "type": "string"
        },
        {
          "internalType": "string",
          "name": "",
          "type": "string"
        },
        {
          "internalType": "string",
          "name": "",
          "type": "string"
        },
        {
          "internalType": "string",
          "name": "",
          "type": "string"
        },
        {
          "internalType": "string",
          "name": "",
          "type": "string"
        },
        {
          "internalType": "string",
          "name": "",
          "type": "string"
        },
        {
          "internalType": "string",
          "name": "",
          "type": "string"
        },
        {
          "internalType": "string",
          "name": "",
          "type": "string"
        },
        {
          "internalType": "string",
          "name": "",
          "type": "string"
        }
      ],
      "stateMutability": "view",
      "type": "function"
    },
    {
      "inputs": [
        {
          "internalType": "uint256",
          "name": "id",
          "type": "uint256"
        }
      ],
      "name": "getTransactions",
      "outputs": [
        {
          "internalType": "string[]",
          "name": "",
          "type": "string[]"
        }
      ],
      "stateMutability": "view",
      "type": "function"
    },
    {
      "inputs": [],
      "name": "getClientCount",
      "outputs": [
        {
          "internalType": "uint256",
          "name": "",
          "type": "uint256"
        }
      ],
      "stateMutability": "view",
      "type": "function"
    },
    {
      "inputs": [],
      "name": "getAllClients",
      "outputs": [
        {
          "components": [
            {
              "internalType": "uint256",
              "name": "id",
              "type": "uint256"
            },
            {
              "internalType": "address",
              "name": "addedBy",
              "type": "address"
            },
            {
              "internalType": "string",
              "name": "name",
              "type": "string"
            },
            {
              "internalType": "string",
              "name": "nric",
              "type": "string"
            },
            {
              "internalType": "string",
              "name": "nationality",
              "type": "string"
            },
            {
              "internalType": "string",
              "name": "citizenship",
              "type": "string"
            },
            {
              "internalType": "string",
              "name": "addressLine",
              "type": "string"
            },
            {
              "internalType": "string",
              "name": "postalCode",
              "type": "string"
            },
            {
              "internalType": "string",
              "name": "gender",
              "type": "string"
            },
            {
              "internalType": "string",
              "name": "countryOfBirth",
              "type": "string"
            },
            {
              "internalType": "string",
              "name": "dateOfBirth",
              "type": "string"
            },
            {
              "internalType": "string",
              "name": "homeNumber",
              "type": "string"
            },
            {
              "internalType": "string",
              "name": "phoneNumber",
              "type": "string"
            },
            {
              "internalType": "string",
              "name": "occupation",
              "type": "string"
            },
            {
              "internalType": "string",
              "name": "employerName",
              "type": "string"
            },
            {
              "internalType": "string",
              "name": "employerNumber",
              "type": "string"
            },
            {
              "internalType": "string",
              "name": "riskStatus",
              "type": "string"
            },
            {
              "internalType": "string",
              "name": "image",
              "type": "string"
            },
            {
              "internalType": "string[]",
              "name": "txHistory",
              "type": "string[]"
            }
          ],
          "internalType": "struct TraceFI.Client[]",
          "name": "",
          "type": "tuple[]"
        }
      ],
      "stateMutability": "view",
      "type": "function"
    }
  ],
  "bytecode": "0x608080604052346100165761266a908161001c8239f35b600080fdfe6104c0604052600436101561001357600080fd5b60003560e01c80634c541b7c14610dce5780635742177c14610d035780635a81018a14610ce557806389a4b22e14610ad2578063a9cb1a361461076e578063e4d7a3d4146103415763e815f43f1461006a57600080fd5b3461033c57602036600319011261033c5760043560005481101561030a5761009190612293565b50805460e052600181015481906001600160a01b03166100b36002830161253b565b610480526100c36003830161253b565b6100cf6004840161253b565b6100db6005850161253b565b6100e76006860161253b565b6100f36007870161253b565b6100ff6008880161253b565b9061010c6009890161253b565b92610119600a8a0161253b565b94610126600b8b0161253b565b96610133600c8c0161253b565b98610140600d8d0161253b565b9a61014d600e8e0161253b565b9c600f0161015a9061253b565b9d6101676010820161253b565b610100526011016101779061253b565b61040052604051806102c05260e05190526102c05160200152610240806102c051604001526102c0510161048051906101af916121b9565b6102c05180820390606001526101c4916121b9565b6102c05180820390608001526101d9916121b9565b6102c0518082039060a001526101ee916121b9565b6102c0518082039060c00152610203916121b9565b6102c0518082039060e00152610218916121b9565b6102c05180820390610100015261022e916121b9565b6102c051808203906101200152610244916121b9565b6102c05180820390610140015261025a916121b9565b6102c051808203906101600152610270916121b9565b6102c051808203906101800152610286916121b9565b6102c051808203906101a0015261029c916121b9565b6102c051808203906101c001526102b2916121b9565b6102c051808203906101e001526102c8916121b9565b6102c05180820390610200015261010051906102e3916121b9565b6102c0518082039061022001526102c051906104005190610303916121b9565b036102c051f35b60405162461bcd60e51b815260206004820152600a602482015269125b9d985b1a5908125160b21b6044820152606490fd5b600080fd5b3461033c57600036600319011261033c5760005461035e81612236565b9061036c6040519283612215565b8082526020918281019182600080527f290decd9548b62a8d60345a988386fc84ba6bc95484008f6362f93160ef3e563856000925b84841061060d57508486604051928392818401908285525180915260408401916005604083821b87010194936000915b8483106103de5787870388f35b91939583959750603f9391931989820301845287519081518152600160a01b6001900383830151168382015260408201516102608060408401528201610423916121b9565b60609081840151918382039084015261043b916121b9565b608090818401519183820390840152610453916121b9565b60a09081840151918382039084015261046b916121b9565b60c090818401519183820390840152610483916121b9565b60e08301519082810360e084015261049a916121b9565b610100908184015191838203908401526104b3916121b9565b610120908184015191838203908401526104cc916121b9565b610140908184015191838203908401526104e5916121b9565b610160908184015191838203908401526104fe916121b9565b61018090818401519183820390840152610517916121b9565b6101a090818401519183820390840152610530916121b9565b6101c090818401519183820390840152610549916121b9565b6101e090818401519183820390840152610562916121b9565b6102009081840151918382039084015261057b916121b9565b61022090818401519183820390840152610594916121b9565b906102408093015192818303910152815180825283820190848082881b85010194019260005b8281106105df57505050505090806001929801930193019092879695939492946103d1565b919395806105fb6001939597601f1987820301895289516121b9565b970195019101918995949391926105ba565b60019160139160405161061f816121f9565b85548152848060a01b0385870154168382015261063e6002870161253b565b604082015261064f6003870161253b565b60608201526106606004870161253b565b60808201526106716005870161253b565b60a08201526106826006870161253b565b60c08201526106936007870161253b565b60e08201526106a46008870161253b565b6101008201526106b66009870161253b565b6101208201526106c8600a870161253b565b6101408201526106da600b870161253b565b6101608201526106ec600c870161253b565b6101808201526106fe600d870161253b565b6101a0820152610710600e870161253b565b6101c0820152610722600f870161253b565b6101e08201526107346010870161253b565b6102008201526107466011870161253b565b610220820152610758601287016125df565b61024082015281520192019201919086906103a1565b3461033c57602036600319011261033c57600435600054811015610a99575b60005460001981019081116107f15781101561095f5760018082018083116107f1576107b890612293565b506107c283612293565b91909161094957808203610807575b505050806107de81612293565b505560001981146107f15760010161078d565b634e487b7160e01b600052601160045260246000fd5b61094192815483558083019060018060a01b0390830154166bffffffffffffffffffffffff60a01b825416179055610845600280830190840161240b565b610855600380830190840161240b565b610865600482016004840161240b565b610875600580830190840161240b565b610885600680830190840161240b565b610895600780830190840161240b565b6108a5600880830190840161240b565b6108b5600980830190840161240b565b6108c5600a80830190840161240b565b6108d5600b80830190840161240b565b6108e5600c80830190840161240b565b6108f5600d80830190840161240b565b610905600e80830190840161240b565b610915600f80830190840161240b565b610925601080830190840161240b565b610935601180830190840161240b565b601280910191016124e9565b8180806107d1565b634e487b7160e01b600052600060045260246000fd5b6000548015610a83576000190161097581612293565b6109495760008155601260019160008382015561099460028201612379565b6109a060038201612379565b6109ac60048201612379565b6109b860058201612379565b6109c460068201612379565b6109d060078201612379565b6109dc60088201612379565b6109e860098201612379565b6109f4600a8201612379565b610a00600b8201612379565b610a0c600c8201612379565b610a18600d8201612379565b610a24600e8201612379565b610a30600f8201612379565b610a3c60108201612379565b610a4860118201612379565b018054906000815581610a5d575b6000849055005b6000526020600020908101905b81811015610a565780610a7d8492612379565b01610a6a565b634e487b7160e01b600052603160045260246000fd5b60405162461bcd60e51b8152602060048201526011602482015270125b9d985b1a590818db1a595b9d081251607a1b6044820152606490fd5b3461033c57604036600319011261033c576001600160401b036004356024803583811161033c57610b0790369060040161218c565b9190600054841015610ca957610b1c84612293565b506001908101549094906001600160a01b03163303610c6557610b40601291612293565b500191825492600160401b841015610c5057858401808255841015610c3b576000526020928360002001958411610c275750610b8683610b8087546122e1565b87612332565b600091601f8411600114610bc45750928293918392600094610bb9575b50501b916000199060031b1c1916179055600080f35b013592508580610ba3565b9183601f1981168760005284600020946000905b88838310610c0d5750505010610bf3575b505050811b019055005b0135600019600384901b60f8161c19169055838080610be9565b868601358855909601959384019387935090810190610bd8565b634e487b7160e01b60009081526041600452fd5b50634e487b7160e01b60009081526032600452fd5b50634e487b7160e01b60009081526041600452fd5b60405162461bcd60e51b8152602060048201526017818501527f4f6e6c792063726561746f722063616e207570646174650000000000000000006044820152606490fd5b60405162461bcd60e51b8152602060048201526015818401527410db1a595b9d08191bd95cc81b9bdd08195e1a5cdd605a1b6044820152606490fd5b3461033c57600036600319011261033c576020600054604051908152f35b3461033c5760208060031936011261033c57600435600054811015610d96576012610d30610d3792612293565b50016125df565b6040519082820192808352815180945260408301938160408260051b8601019301916000955b828710610d6a5785850386f35b909192938280610d86600193603f198a820301865288516121b9565b9601920196019592919092610d5d565b60405162461bcd60e51b815260048101839052601060248201526f10db1a595b9d081b9bdd08199bdd5b9960821b6044820152606490fd5b3461033c5761020036600319011261033c576004356001600160401b03811161033c57610dff90369060040161218c565b6103c052610240526024356001600160401b03811161033c57610e2690369060040161218c565b61038052610160526044356001600160401b03811161033c57610e4d90369060040161218c565b61032052610340526064356001600160401b03811161033c57610e7490369060040161218c565b610120526080526084356001600160401b03811161033c57610e9a90369060040161218c565b6102e0526104205260a4356001600160401b03811161033c57610ec190369060040161218c565b906001600160401b0360c4351161033c57610ee13660c43560040161218c565b91906001600160401b0360e4351161033c57610f023660e43560040161218c565b939061030052610104356001600160401b03811161033c57610f2890369060040161218c565b6101805260a052610124356001600160401b03811161033c57610f4f90369060040161218c565b6102605261036052610144356001600160401b03811161033c57610f7790369060040161218c565b60c0526101e052610164356001600160401b03811161033c57610f9e90369060040161218c565b610440526101a0526001600160401b03610184351161033c57610fc7366101843560040161218c565b6102a0526103e0526101a4356001600160401b03811161033c57610fef90369060040161218c565b610280526103a0526101c4356001600160401b03811161033c5761101790369060040161218c565b61046052610220526101e4356001600160401b03811161033c5761103f90369060040161218c565b61014052610200526000546101c05261110d61111c936111309660206104c00160405260006104c052611078604051806104a0526121f9565b6101c0516104a051523360206104a051015261109b366103c0516102405161224d565b60406104a05101526110b436610380516101605161224d565b60606104a05101526110cd36610320516103405161224d565b60806104a05101526110e5366101205160805161224d565b60a06104a05101526110fe366102e0516104205161224d565b60c06104a0510152369161224d565b60e06104a0510152369161224d565b6101006104a051015236906103005161224d565b6101206104a0510152611149366101805160a05161224d565b6101406104a051015261116336610260516103605161224d565b6101606104a051015261117c3660c0516101e05161224d565b6101806104a051015261119636610440516101a05161224d565b6101a06104a05101526111b0366102a0516103e05161224d565b6101c06104a05101526111ca36610280516103a05161224d565b6101e06104a05101526111e436610460516102205161224d565b6102006104a05101526111fe36610140516102005161224d565b6102206104a05101526104c06102406104a05101526101c051600160401b8110156119ae578060016112339201600055612293565b6109495760406104a051805183556001830160018060a01b036020830151166bffffffffffffffffffffffff60a01b82541617905501518051906001600160401b0382116119ae5781906112978261128e60028701546122e1565b60028701612332565b602090601f831160011461211a5760009261210f575b50508160011b916000199060031b1c19161760028201555b60606104a05101518051906001600160401b0382116119ae5781906112fa826112f160038701546122e1565b60038701612332565b602090601f831160011461209d57600092612092575b50508160011b916000199060031b1c19161760038201555b60806104a05101518051906001600160401b0382116119ae57819061135d8261135460048701546122e1565b60048701612332565b602090601f831160011461202057600092612015575b50508160011b916000199060031b1c19161760048201555b60a06104a05101518051906001600160401b0382116119ae5781906113c0826113b760058701546122e1565b60058701612332565b602090601f8311600114611fa357600092611f98575b50508160011b916000199060031b1c19161760058201555b60c06104a05101518051906001600160401b0382116119ae5781906114238261141a60068701546122e1565b60068701612332565b602090601f8311600114611f2657600092611f1b575b50508160011b916000199060031b1c19161760068201555b60e06104a05101518051906001600160401b0382116119ae5781906114868261147d60078701546122e1565b60078701612332565b602090601f8311600114611ea957600092611e9e575b50508160011b916000199060031b1c19161760078201555b6101006104a05101518051906001600160401b0382116119ae5781906114ea826114e160088701546122e1565b60088701612332565b602090601f8311600114611e2c57600092611e21575b50508160011b916000199060031b1c19161760088201555b6101206104a05101518051906001600160401b0382116119ae57819061154e8261154560098701546122e1565b60098701612332565b602090601f8311600114611daf57600092611da4575b50508160011b916000199060031b1c19161760098201555b6101406104a05101518051906001600160401b0382116119ae5781906115b2826115a9600a8701546122e1565b600a8701612332565b602090601f8311600114611d3257600092611d27575b50508160011b916000199060031b1c191617600a8201555b6101606104a05101518051906001600160401b0382116119ae5781906116168261160d600b8701546122e1565b600b8701612332565b602090601f8311600114611cb557600092611caa575b50508160011b916000199060031b1c191617600b8201555b6101806104a05101518051906001600160401b0382116119ae57819061167a82611671600c8701546122e1565b600c8701612332565b602090601f8311600114611c3857600092611c2d575b50508160011b916000199060031b1c191617600c8201555b6101a06104a05101518051906001600160401b0382116119ae5781906116de826116d5600d8701546122e1565b600d8701612332565b602090601f8311600114611bbb57600092611bb0575b50508160011b916000199060031b1c191617600d8201555b6101c06104a05101518051906001600160401b0382116119ae57819061174282611739600e8701546122e1565b600e8701612332565b602090601f8311600114611b3e57600092611b33575b50508160011b916000199060031b1c191617600e8201555b6101e06104a05101518051906001600160401b0382116119ae5781906117a68261179d600f8701546122e1565b600f8701612332565b602090601f8311600114611ac157600092611ab6575b50508160011b916000199060031b1c191617600f8201555b6102006104a05101518051906001600160401b0382116119ae57819061180a8261180160108701546122e1565b60108701612332565b602090601f8311600114611a4457600092611a39575b50508160011b916000199060031b1c19161760108201555b60118101906102206104a0510151918251926001600160401b0384116119ae5761186c8461186684546122e1565b84612332565b602090601f85116001146119cf5760129491600091836119c4575b50508160011b916000199060031b1c19161790555b016102406104a051015160208151916118b583856123c2565b01916000526020600020916000905b8282106118cd57005b80518051906001600160401b0382116119ae576118f4826118ee88546122e1565b88612332565b602090601f8311600114611940579282600194936020938695600092611935575b5050600019600383901b1c191690841b1787555b019401910190926118c4565b015190508980611915565b90601f198316918760005260206000209260005b818110611996575093602093600196938796938388951061197d575b505050811b018755611929565b015160001960f88460031b161c19169055898080611970565b92936020600181928786015181550195019301611954565b634e487b7160e01b600052604160045260246000fd5b015190508580611887565b90601f198516918360005260206000209260005b818110611a2157509160019391876012989410611a08575b505050811b01905561189c565b015160001960f88460031b161c191690558580806119fb565b929360206001819287860151815501950193016119e3565b015190508380611820565b9250601084016000526020600020906000935b601f1984168510611a9b576001945083601f19811610611a82575b505050811b016010820155611838565b015160001960f88460031b161c19169055838080611a72565b81810151835560209485019460019093019290910190611a57565b0151905083806117bc565b9250600f84016000526020600020906000935b601f1984168510611b18576001945083601f19811610611aff575b505050811b01600f8201556117d4565b015160001960f88460031b161c19169055838080611aef565b81810151835560209485019460019093019290910190611ad4565b015190508380611758565b9250600e84016000526020600020906000935b601f1984168510611b95576001945083601f19811610611b7c575b505050811b01600e820155611770565b015160001960f88460031b161c19169055838080611b6c565b81810151835560209485019460019093019290910190611b51565b0151905083806116f4565b9250600d84016000526020600020906000935b601f1984168510611c12576001945083601f19811610611bf9575b505050811b01600d82015561170c565b015160001960f88460031b161c19169055838080611be9565b81810151835560209485019460019093019290910190611bce565b015190508380611690565b9250600c84016000526020600020906000935b601f1984168510611c8f576001945083601f19811610611c76575b505050811b01600c8201556116a8565b015160001960f88460031b161c19169055838080611c66565b81810151835560209485019460019093019290910190611c4b565b01519050838061162c565b9250600b84016000526020600020906000935b601f1984168510611d0c576001945083601f19811610611cf3575b505050811b01600b820155611644565b015160001960f88460031b161c19169055838080611ce3565b81810151835560209485019460019093019290910190611cc8565b0151905083806115c8565b9250600a84016000526020600020906000935b601f1984168510611d89576001945083601f19811610611d70575b505050811b01600a8201556115e0565b015160001960f88460031b161c19169055838080611d60565b81810151835560209485019460019093019290910190611d45565b015190508380611564565b9250600984016000526020600020906000935b601f1984168510611e06576001945083601f19811610611ded575b505050811b01600982015561157c565b015160001960f88460031b161c19169055838080611ddd565b81810151835560209485019460019093019290910190611dc2565b015190508380611500565b9250600884016000526020600020906000935b601f1984168510611e83576001945083601f19811610611e6a575b505050811b016008820155611518565b015160001960f88460031b161c19169055838080611e5a565b81810151835560209485019460019093019290910190611e3f565b01519050838061149c565b9250600784016000526020600020906000935b601f1984168510611f00576001945083601f19811610611ee7575b505050811b0160078201556114b4565b015160001960f88460031b161c19169055838080611ed7565b81810151835560209485019460019093019290910190611ebc565b015190508380611439565b9250600684016000526020600020906000935b601f1984168510611f7d576001945083601f19811610611f64575b505050811b016006820155611451565b015160001960f88460031b161c19169055838080611f54565b81810151835560209485019460019093019290910190611f39565b0151905083806113d6565b9250600584016000526020600020906000935b601f1984168510611ffa576001945083601f19811610611fe1575b505050811b0160058201556113ee565b015160001960f88460031b161c19169055838080611fd1565b81810151835560209485019460019093019290910190611fb6565b015190508380611373565b9250600484016000526020600020906000935b601f1984168510612077576001945083601f1981161061205e575b505050811b01600482015561138b565b015160001960f88460031b161c1916905583808061204e565b81810151835560209485019460019093019290910190612033565b015190508380611310565b9250600384016000526020600020906000935b601f19841685106120f4576001945083601f198116106120db575b505050811b016003820155611328565b015160001960f88460031b161c191690558380806120cb565b818101518355602094850194600190930192909101906120b0565b0151905083806112ad565b9250600284016000526020600020906000935b601f1984168510612171576001945083601f19811610612158575b505050811b0160028201556112c5565b015160001960f88460031b161c19169055838080612148565b8181015183556020948501946001909301929091019061212d565b9181601f8401121561033c578235916001600160401b03831161033c576020838186019501011161033c57565b919082519283825260005b8481106121e5575050826000602080949584010152601f8019910116010190565b6020818301810151848301820152016121c4565b61026081019081106001600160401b038211176119ae57604052565b90601f801991011681019081106001600160401b038211176119ae57604052565b6001600160401b0381116119ae5760051b60200190565b9291926001600160401b0382116119ae5760405191612276601f8201601f191660200184612215565b82948184528183011161033c578281602093846000960137010152565b9060009182548110156122cd57601390838052027f290decd9548b62a8d60345a988386fc84ba6bc95484008f6362f93160ef3e563019190565b634e487b7160e01b83526032600452602483fd5b90600182811c92168015612311575b60208310146122fb57565b634e487b7160e01b600052602260045260246000fd5b91607f16916122f0565b818110612326575050565b6000815560010161231b565b9190601f811161234157505050565b61236d926000526020600020906020601f840160051c8301931061236f575b601f0160051c019061231b565b565b9091508190612360565b61238381546122e1565b908161238d575050565b81601f6000931160011461239f575055565b9080839182526123be601f60208420940160051c84016001850161231b565b5555565b90600160401b81116119ae578154918181558282106123e057505050565b600052602060002091820191015b8181106123f9575050565b80612405600192612379565b016123ee565b908082146124e55761241d81546122e1565b906001600160401b0382116119ae5781906124428261243c86546122e1565b86612332565b600090601f83116001146124795760009261246e575b50508160011b916000199060031b1c1916179055565b015490503880612458565b81526020808220858352818320935090601f1985169083905b8282106124cc5750509084600195949392106124b3575b505050811b019055565b015460001960f88460031b161c191690553880806124a9565b8495819295850154815560018091019601940190612492565b5050565b8181146124e5578154916124fd83836123c2565b6000526020600020906000526020600020906000905b8382106125205750505050565b8061252d6001928561240b565b928101929181019101612513565b906040519182600082549261254f846122e1565b9081845260019485811690816000146125bc5750600114612579575b505061236d92500383612215565b9093915060005260209081600020936000915b8183106125a457505061236d9350820101388061256b565b8554888401850152948501948794509183019161258c565b91505061236d94506020925060ff191682840152151560051b820101388061256b565b9081546125eb81612236565b926125f96040519485612215565b818452600090815260208082208186015b848410612618575050505050565b60018381926126268561253b565b81520192019301929061260a56fea2646970667358221220700bf223961fda89ad1350d787d437a028e3afa4b89c728a54091b042e37727f64736f6c63430008130033",
  "immutableReferences": {},
  "source": "// SPDX-License-Identifier: MIT\npragma solidity ^0.8.19;\n\ncontract TraceFI {\n    struct Client {\n        uint id;\n        address addedBy;\n        string name;\n        string nric;\n        string nationality;\n        string citizenship;\n        string addressLine;\n        string postalCode;\n        string gender;\n        string countryOfBirth;\n        string dateOfBirth;\n        string homeNumber;\n        string phoneNumber;\n        string occupation;\n        string employerName;\n        string employerNumber;\n        string riskStatus;\n        string image;\n        string[] txHistory;\n    }\n\n    Client[] private clients;\n\n    // Register a new client\n    function registerClient(\n        string calldata _name,\n        string calldata _nric,\n        string calldata _nationality,\n        string calldata _citizenship,\n        string calldata _addressLine,\n        string calldata _postalCode,\n        string calldata _gender,\n        string calldata _countryOfBirth,\n        string calldata _dateOfBirth,\n        string calldata _homeNumber,\n        string calldata _phoneNumber,\n        string calldata _occupation,\n        string calldata _employerName,\n        string calldata _employerNumber,\n        string calldata _riskStatus,\n        string calldata _image\n    ) external {\n        clients.push(Client({\n            id: clients.length,\n            addedBy: msg.sender,\n            name: _name,\n            nric: _nric,\n            nationality: _nationality,\n            citizenship: _citizenship,\n            addressLine: _addressLine,\n            postalCode: _postalCode,\n            gender: _gender,\n            countryOfBirth: _countryOfBirth,\n            dateOfBirth: _dateOfBirth,\n            homeNumber: _homeNumber,\n            phoneNumber: _phoneNumber,\n            occupation: _occupation,\n            employerName: _employerName,\n            employerNumber: _employerNumber,\n            riskStatus: _riskStatus,\n            image: _image,\n            txHistory: new string[](0)\n        }));\n    }\n\n    // Add transaction to a specific client ID\n    function addTransaction(uint clientId, string calldata _tx) external {\n        require(clientId < clients.length, \"Client does not exist\");\n        require(clients[clientId].addedBy == msg.sender, \"Only creator can update\");\n        clients[clientId].txHistory.push(_tx);\n    }\n\n    //NEW: Delete a client permanently by shifting the array\n    function deleteClient(uint id) external {\n        require(id < clients.length, \"Invalid client ID\");\n\n        // Shift all clients after the one being deleted\n        for (uint i = id; i < clients.length - 1; i++) {\n            clients[i] = clients[i + 1];\n            clients[i].id = i; // Update shifted client's ID\n        }\n\n        // Remove the last client (now duplicated)\n        clients.pop();\n    }\n\n    // Get a client's details by ID\n    function getClientById(uint id) external view returns (\n        uint,\n        address,\n        string memory,\n        string memory,\n        string memory,\n        string memory,\n        string memory,\n        string memory,\n        string memory,\n        string memory,\n        string memory,\n        string memory,\n        string memory,\n        string memory,\n        string memory,\n        string memory,\n        string memory,\n        string memory\n    ) {\n        require(id < clients.length, \"Invalid ID\");\n        Client storage c = clients[id];\n        return (\n            c.id,\n            c.addedBy,\n            c.name,\n            c.nric,\n            c.nationality,\n            c.citizenship,\n            c.addressLine,\n            c.postalCode,\n            c.gender,\n            c.countryOfBirth,\n            c.dateOfBirth,\n            c.homeNumber,\n            c.phoneNumber,\n            c.occupation,\n            c.employerName,\n            c.employerNumber,\n            c.riskStatus,\n            c.image\n        );\n    }\n\n    // Get all transaction strings by client ID\n    function getTransactions(uint id) external view returns (string[] memory) {\n        require(id < clients.length, \"Client not found\");\n        return clients[id].txHistory;\n    }\n\n    // Get number of clients\n    function getClientCount() external view returns (uint) {\n        return clients.length;\n    }\n\n    // Get all clients (frontend expects this)\n    function getAllClients() external view returns (Client[] memory) {\n        return clients;\n    }\n}\n",
  "sourcePath": "C:\\RPy3s1\\FYP\\FYP_Code\\contracts\\TraceFI.sol",
  "compiler": {
    "name": "solc",
    "version": "0.8.19+commit.7dd6d404.Emscripten.clang"
  },
  "schemaVersion": "3.4.16",
  "updatedAt": "2025-07-27T16:28:30.014Z",
  "devdoc": {
    "kind": "dev",
    "methods": {},
    "version": 1
  },
  "userdoc": {
    "kind": "user",
    "methods": {},
    "version": 1
  }
}